:100000000C9415010C9434010C9434010C943401BB
:100010000C9434010C9434010C9434010C9434018C
:100020000C9434010C9434010C94F60D0C94300EA5
:100030000C9434010C9434010C9434010C9434016C
:100040000C9434010C9434010C9434010C9434015C
:100050000C9434010C9434010C9434010C9434014C
:100060000C9434010C9434010C9434010C9434013C
:100070000C9434010C9434010C9434010C9434012C
:100080000C9434010C9434010C9434010C9434011C
:100090000C9434010C94340118040D040204F70389
:1000A000E103EC03A1042E0A280A320AEE091B0A16
:1000B000410B3D0B980A820A660A000A440BAC0DFC
:1000C000670CA20DEA0D980DEC0D8E0DE20D840D5E
:1000D000E40D7A0DE60D700DE80D660DBA0D5C0DA0
:1000E000BC0D520DBE0D480DD80D3E0DDA0D340D70
:1000F000DC0D2A0DDE0D200DE00D160DD00D0C0DC2
:10010000D20D020DD40DF80CD60DEE0CC20DE40C80
:10011000C00DDA0CF00DD00CEE0DC60CF40DBC0CBD
:10012000F20DB20CCA0DA80CC80D9E0CCE0D940C8D
:10013000CC0D8A0CC60D800CC40D760C720C6E0CA6
:10014000000100000D021200020000CA014300037A
:100150000000C6010401030904B6010E02030904EC
:1001600078013C030309046A010C0C0331003200DE
:1001700033003400350000003C034E004F005200B5
:100180007700610079002000500053003300200008
:1001900046006C006100730068006500720020007A
:1001A00055005300420020005300650072006900B2
:1001B00061006C0000000E036A00750064006700B7
:1001C00065007300000004030904090243000201F2
:1001D00000C0FA0904000001020201000524001019
:1001E000010524010101042402060524060001077B
:1001F00005820310004009040100020A0000000704
:1002000005030240000007058402400000120100BF
:100210000202000010C0167A04000101020301006E
:1002200001C1120180360181360011241FBECFEFBB
:10023000D0E2DEBFCDBF11E0A0E0B1E0EAE6F1E23E
:1002400000E00BBF02C007900D92AC34B107D9F7A4
:1002500022E1ACE4B1E001C01D92A633B207E1F7A0
:100260000E94A8090C94B3100C940000CF93DF9364
:10027000EC0188810E94B10B89810E94B10B8A81B7
:100280000E94B10B8B810E94B10B8C810E94B10B3B
:100290008C850E94B10B8B850E94B10B8A850E94D0
:1002A000B10B89850E94B10B8E810E94B10B8D81AB
:1002B0000E94B10B898D0E94B10B8C890E94B10BF9
:1002C0008B890E94B10B8A890E94B10B89890E9497
:1002D000B10B888D0E94B10B8F890E94B10B8E8962
:1002E0000E94B10B8D890E94B10B8A8D0E94B10BC7
:1002F0008E8D0E94B10B8D8D0E94B10B8C8D0E9452
:10030000B10B8B8DDF91CF910C94B10B2F923F925B
:100310004F925F926F927F928F929F92AF92BF9215
:10032000CF92DF92EF92FF920F931F93CF93DF93C1
:1003300000D000D000D0CDB7DEB79E838D83DC0126
:100340009996ED91FC919A978FEF80839996ED9114
:10035000FC919A9790819F7790839596ED91FC916F
:10036000969790EC9083FD01EF5BFF4F0190F08139
:10037000E02D8083DD96ED91FC91DE9780839F9642
:10038000ED91FC91D09780839B96ED91FC919C9789
:100390008083DB96ED91FC91DC978083D796ED917D
:1003A000FC91D8971082D596ED91FC91D6978083D9
:1003B000D196ED91FC91D29710829396ED91FC919C
:1003C000949780835F96ED91FC91909790E990834C
:1003D000D196ED91FC91D2978083DD96ED91FC91C1
:1003E000DE971082DD96ED91FC91DE978083D196A9
:1003F000ED91FC91D2971082D796ED91FC91D89710
:1004000080835F96ED91FC9190971082DD96ED913F
:10041000FC91DE971082DD96ED91FC91DE97808352
:10042000D796ED91FC91D89710829396ED91FC911F
:10043000949710825F96ED91FC9190979091430173
:1004400090839B96ED91FC919C9710820000919671
:10045000ED91FC91929790819B96ED91FC919C97E8
:1004600080839B96ED91FC919C9710820000919661
:10047000ED91FC91929720819B96ED91FC919C9738
:1004800080839B96ED91FC919C9710820000919641
:10049000ED91FC91929730819B96ED91FC919C9708
:1004A00080839B96ED91FC919C9710820000919621
:1004B000ED91FC91929730809B96ED91FC919C97E9
:1004C00080839B96ED91FC919C9710820000919601
:1004D000ED91FC919297E080E982FD01A3A5B4A57E
:1004E0008C939083218332833382E48297832087A5
:1004F0009D3A09F4DEC09C3E09F475C09C3219F4A3
:10050000243409F447C18E2D86958695837091E039
:10051000292E01C0220C8A95EAF7832D837000E012
:1005200014E002C0000F111F8A95E2F72801012E86
:10053000000C66087708AD81BE8119964D925D92D8
:100540006D927C921C97832D807382958F70812C85
:10055000912C5401A39404C0880C991CAA1CBB1CA8
:100560008A95D2F7FD01818A928AA38AB48A228E63
:1005700032FA882780F9A8E0B0E002C0AA0FBB1FBA
:100580008A95E2F7A301920169E056954795379560
:1005900027956A95D1F70E949C106B017C01603110
:1005A00071058105910581F1603471058105910521
:1005B00059F180E026960FB6F894DEBF0FBECDBF8E
:1005C000DF91CF911F910F91FF90EF90DF90CF902F
:1005D000BF90AF909F908F907F906F905F904F9063
:1005E0003F902F900895293709F4A5C0213F09F4C1
:1005F000DEC0213A09F4E0C02A3D09F084CF22246C
:100600002394E0E5E98389CFAD81BE811696DC9223
:10061000CE921597E981E295E7708E2F90E0FC016C
:100620003197E730F10508F479C080E090E0A0E868
:10063000B0E0ED81FE81838F948FA58FB68F36FC5D
:1006400071C088E0AD81BE8159968C9359975B96B5
:100650006D917D918D919C915E97A50194010E9471
:100660006610A22DB0E00E94911069837A838B837B
:100670009C83C501B401A30192010E946610C801C8
:100680008C0D9D1DE980FA800B811C81AD81BE819E
:100690005596ED92FD920D931C935897FD01258779
:1006A00036874787508B90934D0180934C0181E0B2
:1006B00081CF273D09F4C7C0233709F024CF80E05C
:1006C00092E0A0E0B0E0ED81FE8181879287A38770
:1006D000B48780E090E4A0E0B0E0818B928BA38BA4
:1006E000B48B81E0828F80E190E09683858380E007
:1006F00090E0A0E0B1E0838F948FA58FB68F88E063
:10070000818F80E192E020E230E040E050E0E12C97
:1007100014E0F12E00E010E0DF01BACFE45BFF4F00
:100720000C94881080E1ED81FE81818F638D748D42
:10073000858D968D92CF80E092E0A0E0B0E0ED81D3
:10074000FE8181879287A387B48780E090E4A0E050
:10075000B0E0818B928BA38BB48B84E0828F80E19D
:1007600090E09683858380E090E0A0E0B2E0838F04
:10077000948FA58FB68F88E0818F80E192E020E290
:1007800030E040E050E0E12C10E2F12E00E010E01B
:10079000DF017ECF343409F0B6CEEBE4FE2E3F10FD
:1007A000B2CE0E2D093A09F460C18E2DADCE2224B1
:1007B000239400E40983B1CE2224239410E4198306
:1007C000ACCE80E090E0A0E0B0E1ED81FE81838FCF
:1007D000948FA58FB68F33CF80E090E0A0E0B0E299
:1007E000ED81FE81838F948FA58FB68F28CF80E017
:1007F00090E0A0E0B8E0ED81FE81838F948FA58F1B
:10080000B68F1DCF80E090E0A0E0B4E0ED81FE81E6
:10081000838F948FA58FB68F12CF80E090E0A0E0F9
:10082000B2E0ED81FE81838F948FA58FB68F07CFC5
:1008300080E090E0A0E0B1E0ED81FE81838F948FB5
:10084000A58FB68FFCCE832D837020E038E0690140
:1008500002C0CC0CDD1C8A95E2F746010D2C000C81
:10086000AA08BB08DF0181869286A386B48688E049
:10087000818FEE2DE695E695E37001E010E002C071
:10088000000F111FEA95E2F75A960C9380E090E072
:10089000A0E0B0E8ED81FE81838F948FA58FB68FA5
:1008A000832D807B803209F4BCC008F455C08038A9
:1008B00009F4D2C0803909F4C6C0803309F079CE7A
:1008C00080E090E0ACE0B0E0818B928BA38BB48BA6
:1008D000832D869586958370813009F479C008F45C
:1008E0004AC0823009F065CE80EC91E0AD81BE81D6
:1008F00016969C938E93159751964D905D906D90A2
:100900007C90549760E070E080E090E8A301920151
:100910000E946610D8010E949C1069837A838B83A1
:100920009C83C301B201A50194010E946610C60117
:1009300080549E4FE980FA800B811C81AD81BE817D
:10094000A7CE80E090E0A0E0B0E4ED81FE81838F4F
:10095000948FA58FB68F73CE882309F46BC0803136
:1009600009F027CE80E090E0A4E0B0E0818B928B8C
:10097000A38BB48BADCF80E890E0AD81BE8116969D
:100980009C938E93159751964D905D906D907C90B1
:10099000549760E070E080E090E8A30192010E942B
:1009A0006610D8010E949C1069837A838B839C8394
:1009B000C301B201A50194010E946610C6018058CE
:1009C0009F4FE980FA800B811C81AD81BE8160CE92
:1009D00080EE90E0ED81FE81968385834188528888
:1009E0006388748860E070E080E090E8A301920181
:1009F0000E946610D8010E949C1069837A838B83C1
:100A00009C83C301B201A50194010E946610C60136
:100A100080529F4FE980FA800B811C81AD81BE819D
:100A200037CE80E090E0A8E0B0E0818B928BA38B82
:100A3000B48B4ECF80E090E0A2E0B0E0818B928B4F
:100A4000A38BB48B45CF80E090E0A0E2B0E0818B37
:100A5000928BA38BB48B3CCF80E090E0A0E1B0E020
:100A6000818B928BA38BB48B33CF80E090E2A0E09C
:100A7000B0E0ED81FE8181879287A387B48780E013
:100A800090E0A0E2B0E0818B928BA38BB48B82E0EC
:100A9000828F88EE92E09683858380E090E0A0E0EC
:100AA000B5E8838F948FA58FB68F88E0818F88EE0D
:100AB00092E220E031E040E050E010E5E12E18E065
:100AC000F12E00E010E0DF01E3CDBF92CF92DF9284
:100AD000EF92FF920F931F93CF93DF9300D000D03C
:100AE000CDB7DEB78C01DC019996ED91FC919A9718
:100AF0008FEF80839996ED91FC919A9790819F77E3
:100B000090839596ED91FC91969790EC9083F801E7
:100B1000EF5BFF4F0190F081E02D8083DD96ED913A
:100B2000FC91DE9780839F96ED91FC91D097808316
:100B30009B96ED91FC919C978083DB96ED91FC91C7
:100B4000DC978083D796ED91FC91D8971082D5964B
:100B5000ED91FC91D6978083D196ED91FC91D2973F
:100B600010829396ED91FC91949780835F96ED911E
:100B7000FC9190971082D196ED91FC91D297808351
:100B8000DD96ED91FC91DE971082DD96ED91FC9162
:100B9000DE978083D196ED91FC91D2971082D79603
:100BA000ED91FC91D897808317969C9117979D3A69
:100BB00009F454C19C3E09F43FC1D8015F96ED9100
:100BC000FC9190971082DD96ED91FC91DE9710825A
:100BD000DD96ED91FC91DE978FEF80835F96ED912E
:100BE000FC9190971082DD96ED91FC91DE9710823A
:100BF000DD96ED91FC91DE9780835F96ED91FC91FF
:100C00009097909153019083DD96ED91FC91DE9742
:100C10001082DD96ED91FC91DE9780835F96ED91D9
:100C2000FC919097909154019083DD96ED91FC9109
:100C3000DE971082DD96ED91FC91DE9780835F96C2
:100C4000ED91FC919097909155019083DD96ED91F7
:100C5000FC91DE971082DD96ED91FC91DE9780830A
:100C6000D801D796ED91FC91D897108217968C9168
:100C700017978D3A09F4EBC08C3E09F4D6C0D80121
:100C80005F96ED91FC91909780E38083D801D19697
:100C9000ED91FC91D2978FEF8083DD96ED91FC91E1
:100CA000DE971082DD96ED91FC91DE978083D196E0
:100CB000ED91FC91D29710829396ED91FC919497CF
:100CC00010825F96ED91FC91909780914301808313
:100CD000CFB6F89480E090E0A0E2B0E089839A83F8
:100CE000AB83BC8389819A81AB81BC81892B8A2BA0
:100CF0008B2BF9F0D8019796ED91FC919897808114
:100D000087FF04C016C0808187FD13C089819A8146
:100D1000AB81BC810197A109B10989839A83AB8317
:100D2000BC8389819A81AB81BC81892B8A2B8B2BD7
:100D300051F720914C0130914D01203EB0E13B072D
:100D4000C0F1B12C86E3E82E82E1F82EDD24DA949E
:100D5000E6E5F1E0D8019B968D919C919C97DC0192
:100D60001C920000D80191968D919C919297DC0184
:100D70008C918193D8019B968D919C919C97DC01DD
:100D8000DC92EE16FF0631F760EE70E186E591E049
:100D90000E94000CB39420914C0130914D01EB2D39
:100DA000F0E0C90160EE70E10E945210E617F7070B
:100DB00078F2C90160EE70E10E945210BC01009708
:100DC00001F1E6E5F1E0AC014A5A5E4F2FEFD801A0
:100DD0009B968D919C919C97DC011C920000D80100
:100DE00091968D919C919297DC019C919193D80161
:100DF0009B968D919C919C97DC012C93E417F507B1
:100E000031F786E591E00E94000CCFBE81E00F90A3
:100E10000F900F900F90DF91CF911F910F91FF9046
:100E2000EF90DF90CF90BF900895F80180858937CB
:100E300009F025CF00002ACFF8019085993709F0F5
:100E4000BCCE078CF0A1E02D1082D801CCCE189634
:100E50008C91833709F013CF000018CF18969C911E
:100E60001897933709F0A9CE5F96ED91FC91909772
:100E70001082DD96ED91FC91DE971082DD96ED916A
:100E8000FC91DE9780835F96ED91FC919097909115
:100E900053019083DD96ED91FC91DE971082DD96F3
:100EA000ED91FC91DE9780835F96ED91FC91909798
:100EB00090915401CACEFF920F931F93CF93DF936B
:100EC000EC01E9A5FAA58FEF8083E9A5FAA5908149
:100ED0009F779083EDA1FEA190EC9083FE01EF5BE4
:100EE000FF4F0190F081E02D8083EDADFEAD80835A
:100EF000EFA5F8A98083EBA5FCA58083EBADFCAD45
:100F00008083EFA9F8AD1082EDA9FEA98083E9A93D
:100F1000FAA91082EBA1FCA18083EF8DF8A190E8E3
:100F20009083E9A9FAA98083EDADFEAD1082EDAD05
:100F3000FEAD8083E9A9FAA91082EFA9F8AD8083FC
:100F40009F819D3A09F4D7C09C3E09F4CFC0EF8D34
:100F5000F8A11082EDADFEAD1082EDADFEAD8FEFCC
:100F60008083EF8DF8A11082EDADFEAD1082EDAD66
:100F7000FEAD8083EF8DF8A1909153019083EDAD8C
:100F8000FEAD1082EDADFEAD8083EF8DF8A19091A6
:100F900054019083EDADFEAD1082EDADFEAD8083CA
:100FA000EF8DF8A1909155019083EDADFEAD1082CB
:100FB000EDADFEAD8083EFA9F8AD108280914C01BC
:100FC00090914D0100E010E0892BD9F0FF24FA94B4
:100FD00012C0EF8DF8A18083EDADFEAD1082EDADB6
:100FE000FEADF0820F5F1F4F80914C0190914D013B
:100FF0000817190730F40E94710B8F3F2FEF9207EB
:1010000041F7EF8DF8A180E18083E9A9FAA98FEF7C
:101010008083EDADFEAD1082EDADFEAD8083E9A91C
:10102000FAA9108280914C0190914D01081719077F
:1010300008F47EC039E020E78FEF932F9A9501F0F6
:10104000E9F7C895EF8DF8A12083E9A9FAA94FEF38
:101050008083EDADFEAD1082EDADFEAD8083E9A9DC
:10106000FAA91082EBA1FCA11082EF8DF8A190915A
:1010700043019083EBA5FCA510820000E9A1FAA131
:101080009081EBA5FCA58083EBA1FCA1808396FF5A
:10109000D4CFEF8DF8A180E78083E9A9FAA9408336
:1010A000EDADFEAD1082EDADFEAD4083E9A9FAA92C
:1010B0001082EBA1FCA11082EF8DF8A18091430179
:1010C0008083EBA5FCA510820000E9A1FAA1808134
:1010D000EBA5FCA54083EBA1FCA14083809581702A
:1010E000DF91CF911F910F91FF90089598859937C7
:1010F00009F02DCF36CF9885933709F028CFEF8DA3
:10110000F8A11082EDADFEAD1082EDADFEAD808395
:10111000EF8DF8A1909153019083EDADFEAD10825B
:10112000EDADFEAD8083EF8DF8A1909154013CCFE1
:101130008FEFD6CFFC01A1A5B2A58FEF8C93A1A50F
:10114000B2A59C919F779C93A5A1B6A190EC9C938E
:10115000DF01AF5BBF4F0D90BC91A02D8C93A5AD6F
:10116000B6AD8C93A7A5B0A98C93A3A5B4A58C9379
:10117000A3ADB4AD8C93A7A9B0AD1C92A5A9B6A997
:101180008C93A1A9B2A91C92A3A1B4A18C93A78D01
:10119000B0A190E69C93A1A9B2A98C93A5ADB6ADE0
:1011A0001C92A5ADB6AD8C93A1A9B2A91C92A7A91A
:1011B000B0AD8C9397819D3A09F4B4C0A78DB0A1CE
:1011C000809153018C93A5ADB6AD1C92A5ADB6AD83
:1011D0008FEF8C93A78DB0A1909154019C93A5ADF6
:1011E000B6AD1C92A5ADB6AD8C93A78DB0A1909174
:1011F00055019C93A5ADB6AD1C92A5ADB6AD8C9333
:10120000A7A9B0AD1C92A78DB0A180ED8C93A1A928
:10121000B2A98FEF8C93A5ADB6AD1C92A5ADB6ADBE
:101220008C93A1A9B2A91C92A78DB0A190E79C9321
:10123000A1A9B2A98C93A5ADB6AD1C92A5ADB6ADD2
:101240008C93A1A9B2A91C92A3A1B4A11C92A78DB1
:10125000B0A1909143019C93A3A5B4A51C9200005A
:10126000A1A1B2A19C91A3A5B4A58C93A3A1B4A163
:101270008C9397FF6BC037E220E7932F9A9501F08C
:10128000E9F7C895A78DB0A12C93A1A9B2A94FEFFA
:101290008C93A5ADB6AD1C92A5ADB6AD8C93A1A9AE
:1012A000B2A91C92A3A1B4A11C92A78DB0A1909148
:1012B00043019C93A3A5B4A51C920000A1A1B2A1D7
:1012C0009C91A3A5B4A58C93A3A1B4A18C9396FFE4
:1012D000D4CFA78DB0A180E78C93A1A9B2A94C93DC
:1012E000A5ADB6AD1C92A5ADB6AD4C93A1A9B2A962
:1012F0001C92A3A1B4A11C92A78DB0A1809143011F
:101300008C93A3A5B4A51C920000A1A1B2A18C91BD
:10131000A3A5B4A54C9303A0F4A1E02D4083809530
:10132000817008959085933709F048CFA78DB0A1BB
:10133000909153019C93A5ADB6AD1C92A5ADB6ADF1
:101340008C93A78DB0A19091540153CF8FEF089546
:10135000CF93DF9300D000D0CDB7DEB780E8809385
:10136000610091E09093610091E895BF85BF11B84D
:1013700014B817B81AB81DB810BA12B815B818B8FA
:101380001BB81EB811BA0E94550B0E946E0B882321
:10139000E1F38FE392E4AFE0B0E00197A109B10976
:1013A000000001F0D1F7C895000086E5E82E81E045
:1013B000F82EDD24DA9490ECC92E3324339420E205
:1013C000222E3FE4832E33EC932EA12CB12C412C02
:1013D000512C40E2642E712C0E949A0B0E946E0BDD
:1013E0008823D1F30E94710B8F3F2FEF9207B1F347
:1013F0008C30910598F7FC01ED5AFF4F0C94881042
:1014000003E511E00E94710B8F3FFFEF9F0709F486
:1014100075C0F80181938F01EE16FF0699F780E001
:1014200091E00E949A0818160CF432C1811139C15A
:1014300086E50E94B10B11B814B817B81AB81DB8D8
:1014400010BA12B815B818B81BB81EB811BAC6CF62
:1014500081E40E94B10B80E00E94B10B80E00E9409
:10146000B10BBCCFF8943092E0002092D8001092DB
:10147000C900D501C4010197A109B109000001F01B
:10148000D1F7C89500001DBA109268001CBC10BEB0
:101490001FBA10927A0010926E0010926F00109294
:1014A0007000109271001092C9001092BC0011B827
:1014B00014B817B81AB81DB810BA12B815B818B8B9
:1014C0001BB81EB811BA0C9400FE88CF03E511E0DA
:1014D0000E94710B8F3FFFEF9F0781F0F80181930E
:1014E0008F01EE16FF06A1F780E091E00E945B07F6
:1014F00018160CF4CDC0882309F49ACF82E50E9417
:10150000B10B99CF03E511E00E94710B8F3FEFEF14
:101510009E07A1F3F80181938F01EE16FF06A1F754
:101520008BE40E94B10B80E091E00E94650583CFBF
:1015300089E50E94B10BE0912901F0912A01D08246
:10154000E0912901F0912A0180818F778083E091D9
:101550002501F0912601C082E0914101F091420104
:10156000D082E0913D01F0913E01D082E0912F01C7
:10157000F0913001D082E0912B01F0912C01D082CA
:10158000E0913B01F0913C01D082E0913701F09174
:1015900038011082E0913501F0913601D082E0915E
:1015A0003101F09132011082E0912301F091240188
:1015B000D082E0911F01F0912001D082E0913101B1
:1015C000F0913201D082E0913D01F0913E01108214
:1015D000E0913D01F0913E01D082E0913101F09126
:1015E0003201108249825A826B827C8289819A817F
:1015F000AB81BC81892B8A2B8B2BF1F0E0912701E9
:10160000F0912801808187FF04C016C0808187FD8A
:1016100013C089819A81AB81BC810197A109B1096D
:1016200089839A83AB83BC8389819A81AB81BC8196
:10163000892B8A2B8B2B51F780E091E00E94860149
:1016400081112AC0809100010E94B10B809101019B
:101650000E94B10B809102010E94B10B80910301A5
:101660000E94B10B809104010E94B10B14E180E053
:101670000E94B10B1150D9F7DECE8FEF809343015A
:10168000ADCE10924301AACE8EE40E94B10BA6CE3D
:101690008BE40E94B10BCFCE80E091E00E94360136
:1016A000CACE80E50E94B10BC6CE81E88093D700F8
:1016B00080EA8093D80086E189BD09B400FEFDCFA1
:1016C00080E98093D8001092E000109251011092AE
:1016D0004E018CE08093E20078940895809151014E
:1016E00008952FB7F894809151018823F9F083E091
:1016F0008093E9008091E80085FD0CC082FF16C050
:101700009BE602C082FF12C09093E8008091E8003F
:1017100085FFF8CF8091F1009091E80095FD03C01E
:101720009BE69093E8002FBF90E008952FBF8FEFC6
:101730009FEF089580915101882391F02FB7F8947D
:1017400083E08093E9008091E80085FF07C09BE675
:101750009093E8008091E80085FDFACF2FBF0895AF
:10176000089590915101992309F443C09FB7F894CB
:1017700024E02093E90020914F01211132C03091E3
:10178000E400305F2091E80025FD1CC09FBF9091D0
:10179000E400391781F190915101992351F144E00E
:1017A00009C09FBF9091E400391729F19091510130
:1017B0009923F9F09FB7F8944093E9002091E8004D
:1017C00025FFEFCF8093F1008091E80085FD03C0F5
:1017D0008AE38093E80085E0809350019FBF80E01A
:1017E00008952091E80025FF03C010924F01C7CF54
:1017F0009FBF8FEF089581E080934F018FEF089591
:10180000CF92DF92EF92FF921F93CF93DF93DC0191
:10181000809151018823B9F19FB7F89484E08093B7
:10182000E90080914F01811137C06115710509F4FC
:101830009FC134E0D0E41AE3C5E08091E400805F0A
:101840002091E80025FF0DC02EC0909151019923F1
:10185000D1F09FB7F8943093E9002091E80025FD7E
:1018600022C09FBF9091E4008913EFCF81E0809365
:101870004F018FEFDF91CF911F91FF90EF90DF909D
:10188000CF9008959FBF8FEFDF91CF911F91FF9071
:10189000EF90DF90CF9008958091E80085FFF2CF20
:1018A00010924F01C2CF8091F200ED2FE81B4E2F16
:1018B00050E06417750718F4E62FAB015527641B39
:1018C000750BCE2ED12C81E4C816D10410F0FD0189
:1018D0003EC1F601E15AFF4F0C9488108C91809321
:1018E000F10011968C918093F1001196FD013196D3
:1018F0008C918093F100DF01119680818093F1003B
:10190000FD0131968C918093F100DF011196808169
:101910008093F100FD0131968C918093F100DF01FD
:10192000119680818093F100FD0131968C91809316
:10193000F100DF01119680818093F100FD01319665
:101940008C918093F100DF01119680818093F100EA
:10195000FD0131968C918093F100DF011196808119
:101960008093F100FD0131968C918093F100DF01AD
:10197000119680818093F100FD0131968C918093C6
:10198000F100DF01119680818093F100FD01319615
:101990008C918093F100DF01119680818093F1009A
:1019A000FD0131968C918093F100DF0111968081C9
:1019B0008093F100FD0131968C918093F100DF015D
:1019C000119680818093F100FD0131968C91809376
:1019D000F100DF01119680818093F100FD013196C5
:1019E0008C918093F100DF01119680818093F1004A
:1019F000FD0131968C918093F100DF011196808179
:101A00008093F100FD0131968C918093F100DF010C
:101A1000119680818093F100FD0131968C91809325
:101A2000F100DF01119680818093F100FD01319674
:101A30008C918093F100DF01119680818093F100F9
:101A4000FD0131968C918093F100DF011196808128
:101A50008093F100FD0131968C918093F100DF01BC
:101A6000119680818093F100FD0131968C918093D5
:101A7000F100DF01119680818093F100FD01319624
:101A80008C918093F100DF01119680818093F100A9
:101A9000FD0131968C918093F100DF0111968081D8
:101AA0008093F100FD0131968C918093F100DF016C
:101AB000119680818093F100FD0131968C91809385
:101AC000F100DF01119680818093F100FD013196D4
:101AD0008C918093F100DF01119680818093F10059
:101AE000FD0131968C918093F100DF011196808188
:101AF0008093F100FD0131968C918093F100DF011C
:101B0000119680818093F100FD0131968C91809334
:101B1000F100DF01119680818093F100FD01319683
:101B20008C918093F100DF01119680818093F10008
:101B3000FD0131968C918093F100DF011196808137
:101B40008093F100FD0131968C918093F100DF01CB
:101B5000119680818093F1008091E80085FF1093B9
:101B6000E800C09350019FBF6115710509F065CE73
:101B700080E08ACEFD01A5CFFD0199CFFD018DCF7B
:101B8000FD011DCFFD0125CFFD01B5CEFD01BDCE6F
:101B9000FD01D9CEFD01E1CEFD01C1CEFD01C9CED1
:101BA000FD013FCFFD0133CFFD0127CFFD011BCF4D
:101BB000FD0169CFFD015DCFFD0151CFFD0145CF95
:101BC000FD0139CFFD01A5CFFD0199CFFD018DCFDD
:101BD000FD0181CFFD01B1CFFD01A5CFFD01DBCE20
:101BE000FD01E3CEFD01C3CEFD01CBCE1F920F92CE
:101BF0000FB60F9211248F939F938091E100109262
:101C0000E10083FF11C01092E90091E09093EB0096
:101C10001092EC0092E19093ED0098E09093F00028
:101C20001092510110924E0182FF13C08091510118
:101C3000882379F080915001882359F08150809356
:101C40005001811106C084E08093E9008AE380930B
:101C5000E8009F918F910F900FBE0F901F901895E5
:101C60001F920F920FB60F9211240BB60F922F9363
:101C70003F934F935F936F937F938F939F93AF9314
:101C8000CF93DF93EF93FF931092E9008091E800E8
:101C900083FF6EC06091F1008091F1002091F1000E
:101CA0009091F10030E0392B4091F1009091F100DA
:101CB00050E0592B7091F100A091F10092EF9093B8
:101CC000E800863021F1853009F4FBC0893009F441
:101CD00066C0883009F400C1813209F40CC1803239
:101CE00009F4C5C0823209F470C18111B4C1809178
:101CF000E80080FFFCCF623809F497C180E0809350
:101D0000F1001092F1008EEF8093E80034C0E0E41F
:101D1000F1E0859194912817390709F460C187E4AF
:101D200091E0FC01C591D4912C173D0709F462C1E3
:101D30000796FC01C591D4912C173D0709F463C1A6
:101D40000796FC01C591D4912C173D0709F464C195
:101D50000796FC01C591D4912C173D0709F46FC17A
:101D60000796FC01C591D4912C173D0709F4EAC0F0
:101D700081E28093EB00FF91EF91DF91CF91AF91E2
:101D80009F918F917F916F915F914F913F912F9193
:101D90000F900BBE0F900FBE0F901F901895611102
:101DA000E7CF2093510110924E01109250018EEF17
:101DB0008093E80081E08093E900EFE1F2E0E491B4
:101DC000E093EB00EE2309F443C1E0E2F2E0E4919A
:101DD000E093EC00E1E2F2E0E491E093ED0022E236
:101DE00032E082E08093E900C9010196F901449153
:101DF0004093EB00442351F0FC0184918093EC006C
:101E0000C9010396319624912093ED0023E020939D
:101E1000E9009C012F5F3F4FFC0144914093EB0090
:101E2000442359F0F90124912093EC009C012D5F8B
:101E30003F4F319684918093ED0084E08093E900D8
:101E4000A9014F5F5F4FF90184918093EB008823D4
:101E500041F0FA0144914093EC0031962491209393
:101E6000ED008EE18093EA001092EA0084CF6132A7
:101E700009F07ECF8091E80082FFFCCF8091F100D5
:101E8000809344018091F100809345018091F1009D
:101E9000809346018091F100809347018091F10089
:101EA000809348018091F100809349018091F10075
:101EB00080934A018BEF8093E8008EEF8093E800D7
:101EC0005ACF8EEF8093E8008091E80080FFFCCF2E
:101ED00020682093E3004FCF603809F049CF80910C
:101EE000E80080FFFCCF809151018093F1008EEFDC
:101EF0008093E80040CF613A09F03ACF8091E80042
:101F000080FFFCCF809144018093F10080914501D6
:101F10008093F100809146018093F1008091470108
:101F20008093F100809148018093F10080914901F4
:101F30008093F10080914A018093F1008EEF8093AD
:101F4000E80019CFFC0132962591349142175307CE
:101F500009F00ECFFC01349645915491FC01369660
:101F60002491872F90E09A2B8F3F910519F010F064
:101F70008FEF90E0821708F4282F6EEF8091E80031
:101F8000982F9570D9F382FDF6CE322F2131C0F013
:101F900030E1FA01832F94919093F10081503196B2
:101FA0008111F9CF8FEF830F90E00196480F591FF1
:101FB000231B6093E8002111E1CF3031F9F2DBCE31
:101FC0002111E7CF6093E800D6CE613209F0D0CE80
:101FD00020934E018091E80080FFFCCF94CEE2E494
:101FE000F1E0859194914817590709F098CE80E463
:101FF00091E0B0CFFC013296C591D4914C175D07AA
:1020000009F096CEA7CFFC013296C591D4914C171A
:102010005D0709F095CE9ECFFC013296C591D49113
:102020004C175D0709F094CE95CF4093E90080915D
:10203000EB0085FB882780F91092E90060CEFC0157
:102040003296C591D4914C175D0709F089CE82CFA5
:1020500020E232E0C6CE982F9D7F913009F088CEE5
:10206000623009F085CE232B09F082CE4F779FEFA7
:10207000940F943008F07CCE9EEF9093E80040934C
:10208000E900833009F474CE89E18093EB0081E0AC
:1020900090E001C0880F4A95EAF78093EA00109219
:1020A000EA0069CEAA1BBB1B51E107C0AA1FBB1FD8
:1020B000A617B70710F0A61BB70B881F991F5A95D4
:1020C000A9F780959095BC01CD010895A1E21A2E43
:1020D000AA1BBB1BFD010DC0AA1FBB1FEE1FFF1FCC
:1020E000A217B307E407F50720F0A21BB30BE40B1C
:1020F000F50B661F771F881F991F1A9469F7609563
:102100007095809590959B01AC01BD01CF0108951C
:10211000EE0FFF1F0024001C0BBE0790F691E02D70
:1021200009940E94A410A59F900DB49F900DA49FA8
:10213000800D911D11240895B7FF0C9491100E94F9
:102140009110821B930B0895A29FB001B39FC00111
:10215000A39F700D811D1124911DB29F700D811DD3
:0A2160001124911D0895F894FFCF9B
:10216A000000000000000000000000000000000065
:10217A000000000000000000000000000000003124
:10218A00002F0030002E002C002D002200200021FC
:10219A00002500230024002B0029002A00280026FD
:0C21AA00002700FF00E10000000008001A
:00000001FF
